{
    "runestone": {
      "edicts": [],
      "etching": {
        "divisibility": 0,
        "premine": "20000000",
        "rune": "RICHARDDAWKINS",
        "spacers": 64,
        "terms": {
          "amount": "31250",
          "cap": "31360",
          "height": [
            null,
            null
          ],
          "offset": [
            null,
            null
          ]
        },
        "turbo": false
      },
      "mint": "0:0",

      "pointer": 1,
      "cenotaph": false
    },
    "hash": "be3802fa3ae440fefe68da02ca837df0cbb9c2fb5624cc0da0e97dee58f4f551",
    "txIndex": 211,
    "block": "843000",
    "vout": [
      {
        "value": 0,
        "n": 0,
        "scriptPubKey": {
          "asm": "OP_RETURN 13 0203048a9f9b87a787d4f0f704010003400680dac4090a92f4010880f5011601",
          "desc": "raw(6a5d200203048a9f9b87a787d4f0f704010003400680dac4090a92f4010880f5011601)#wmx6q6ce",
          "hex": "6a5d200203048a9f9b87a787d4f0f704010003400680dac4090a92f4010880f5011601",
          "type": "nulldata"
        }
      },
      {
        "value": 0.00000546,
        "n": 1,
        "scriptPubKey": {
          "asm": "1 dcd080a6c9d1fe919fc37da4d2ade923a40719b3706a5a936a3c33aa73a3d3b0",
          "desc": "rawtr(dcd080a6c9d1fe919fc37da4d2ade923a40719b3706a5a936a3c33aa73a3d3b0)#7jgjwpth",
          "hex": "5120dcd080a6c9d1fe919fc37da4d2ade923a40719b3706a5a936a3c33aa73a3d3b0",
          "address": "bc1pmnggpfkf68lfr87r0kjd9t0fywjqwxdnwp494ym28se65uar6wcqgurty9",
          "type": "witness_v1_taproot"
        }
      },
      {
        "value": 0.00001693,
        "n": 2,
        "scriptPubKey": {
          "asm": "0 ca96b14fb3535ede19084447b61510145d94b0a9",
          "desc": "addr(bc1qe2ttznan2d0duxggg3rmv9gsz3wefv9ff22vxp)#vjmep4rh",
          "hex": "0014ca96b14fb3535ede19084447b61510145d94b0a9",
          "address": "bc1qe2ttznan2d0duxggg3rmv9gsz3wefv9ff22vxp",
          "type": "witness_v0_keyhash"
        }
      }
    ],
    "vin": [
      {
        "txid": "16375078346443b38f2312bbd6d53754c175be521f209d2679bcdadbd596c216",
        "vout": 0,
        "scriptSig": {
          "asm": "",
          "hex": ""
        },
        "txinwitness": [
          "074c049c50318e57eceb06eada5ffd54c6b08c0a9a473d75e091a1c1fddaee371905fa29709525e398d67d6ec8b41b23d206bb1590df01aea383443b93912899",
          "20c7db4948d8405e8589721da0114b8eda8073b001ac0ce14bc7b26f147963e0e7ac0063098acfe6703a50e1770268",
          "c192732f74b022a1e77316865f175f00cbde670b8de635ad8c22474131976cf480"
        ],
        "sequence": 4294967293
      }
    ],
    "hex": "0200000000010116c296d5dbdabc79269d201f52be75c15437d5d6bb12238fb3436434785037160000000000fdffffff030000000000000000236a5d200203048a9f9b87a787d4f0f704010003400680dac4090a92f4010880f50116012202000000000000225120dcd080a6c9d1fe919fc37da4d2ade923a40719b3706a5a936a3c33aa73a3d3b09d06000000000000160014ca96b14fb3535ede19084447b61510145d94b0a90340074c049c50318e57eceb06eada5ffd54c6b08c0a9a473d75e091a1c1fddaee371905fa29709525e398d67d6ec8b41b23d206bb1590df01aea383443b939128992f20c7db4948d8405e8589721da0114b8eda8073b001ac0ce14bc7b26f147963e0e7ac0063098acfe6703a50e177026821c192732f74b022a1e77316865f175f00cbde670b8de635ad8c22474131976cf48000000000"
  }